:0A0000000C9437000C9400000C94DF
:10000A0000000C9400000C9400000C9400000C9466
:10001A0000000C9400000C9400000C9464000C94F2
:10002A0000000C9400000C9400000C9400000C9446
:10003A0000000C9400000C9400000C9400000C9436
:10004A0000000C9400000C9400000000000009005D
:10005A000A000600050004000400540007006001BD
:10006A0058000000F894EE27ECBBF1E0FBBFEBBFB1
:10007A00E5BF8DE0A2E0BB27ED938A95E9F780E022
:10008A0094E0A0E6ED930197E9F7E0E6F0E08591C8
:10009A009591009761F0A591B59105901590BF01D2
:1000AA00F00105900D920197E1F7FB01F0CFEFE522
:1000BA00EDBFE4E0EEBFC0E6D1E00C94E1000A92A5
:1000CA00AA93BA93EA93FA93EFB7EA93082C09280A
:1000DA0009F468C0F30131963F01C614D70409F048
:1000EA0061C0E0916A01E03061F4F20131962F01BA
:1000FA003197E3E0F0E0E415F50514F444245524BF
:10010A000AC0F20131972F010024401450041CF454
:10011A00E3E0F0E02F01A0916B01B0916C0111971F
:10012A00F9F4E2E0F0E0EC15FD0524F4F60131976C
:10013A006F0115C0A0916801B0916901549744F408
:10014A00A8E6B1E0ED91FD913196FE93EE9307C0DA
:10015A00E0E0E0936B01E0936C016DD0DCCF17C057
:10016A00EFE0F0E0CE16DF0624F4F60131966F01D7
:10017A000EC067D0E0916A01E03011F4E1E001C0FD
:10018A00E0E0E0936A01EFE0F0E06F01AACFF2014C
:10019A00A0E6B1E0EE0FFF1FAE0FBF1FEC91EBBB65
:1001AA0066247724E0E0E2BFE991EFBFF991E99193
:1001BA00B991A99109901895EFE0F0E06F01E0E09C
:1001CA00E0936A013ED037D0AA24BB24EFEFEABB02
:1001DA00E0E0E4BBE5E0E3BFE0E0E2BFECBFE5E07E
:1001EA00E9BFE0E0E5BFE4BF78949A9B04C000242D
:1001FA000A140B0409F013C0E1E0F0E05F01E8150E
:10020A00F90549F488249924E0E0EBBBE0936A01FC
:10021A0018D011D003C0E1E0F0E04F010AC09A996A
:10022A0005C0E1E0F0E0EA15FB0509F002C0AA24E6
:10023A00BB24DBCFFFCFE0E0E0936801E0936901E4
:10024A000895E1E0F0E0E0936B01F0936C0108950A
:00000001FF
