:080000000C942A000C9400008E
:100008000C9400000C9400000C9400000C94000068
:100018000C9400000C9400000C9400000C94450013
:100028000C9400000C9400000C9400000C94000048
:100038000C9400000C9400000C9400000C94000038
:100048000C9400000C9400000C940000F894EE2727
:10005800ECBBF1E0FBBFEBBFE5BF8DE0A2E0BB2747
:10006800ED938A95E9F780E094E0A0E6ED93019797
:10007800E9F7EFE5EDBFE4E0EEBFC0E6D1E00C94B0
:100088006100EA93FA93EFB7EA93F20131962F01F0
:10009800E2E0F0E0E415F50549F4E8B3E03011F4E6
:1000A800EFEF01C0E0E0E8BB44245524E0E0E2BF04
:1000B800E991EFBFF991E9911895EFEFE7BBE5E01A
:1000C800E9BFE3BFE0E0E2BFECBF7894FFCFFFCF2A
:00000001FF
