:060000000C9438000C9482
:1000060000000C9400000C9400000C9400000C946A
:1000160000000C9400000C9400000C9400000C945A
:1000260065000C9400000C9400000C9400000C94E5
:1000360000000C9400000C9400000C9400000C943A
:1000460000000C9400000C9400000C9400000000CA
:100056000000000009000A00060005000600040072
:100066005400070060015A000000F894EE27ECBB2C
:10007600F1E0FBBFEBBFE5BF8DE0A2E0BB27ED9350
:100086008A95E9F780E094E0A0E6ED930197E9F719
:10009600E2E6F0E085919591009761F0A591B59122
:1000A60005901590BF01F00105900D920197E1F7BB
:1000B600FB01F0CFEFE5EDBFE4E0EEBFC0E6D1E037
:1000C6000C94B500AA93BA93EA93FA93EFB7EA931E
:1000D600F40131964F01E2E0F0E0E815F905C9F5C3
:1000E600772029F5F201A0E6B1E0EE0FFF1FAE0F73
:1000F600BF1FEC91EBBB67D069F4F20131972F017A
:10010600EFEFFFEFE415F50511F4E2E001C0E1E0E1
:100116007E2E0CC0F20131962F01E4E0F0E0E415EA
:10012600F50511F4E2E001C0E1E07E2E10C0E1E049
:10013600E71511F477240BC0E0E0EBBB772443D03E
:1001460021F4E3E0F0E02F0102C044245524882482
:100156009924E0E0E2BFE991EFBFF991E991B99105
:10016600A99118957724CC24DD24EFEFEABBE0E0D3
:10017600E4BBE5E0E3BFE0E0E2BFECBFE5E0E9BFFA
:10018600E0E0E5BFE4BF78949A9B04C000240C1419
:100196000D0409F00CC0E1E0F0E06F0114D019F491
:1001A600AA24BB2403C0E1E0F0E05F010AC09A99EB
:1001B60005C0E1E0F0E0EC15FD0509F002C0CC2435
:1001C600DD24E2CFFFCFE1E0F0E0EA15FB0508957C
:00000001FF
