:100000000C943D000C9400000C9400000C94000033
:100010000C9400000C9400000C9400000C94000060
:100020000C9400000C9400000C9400000C94000050
:100030000C9400000C9400000C9400000C94000040
:100040000C9400000C9400000C9400000C94000030
:100050000C9400001027E80364000A00010000105F
:1000600000011000010074656D70203A20256400C5
:1000700080C002006C0170000000F894EE27ECBB19
:10008000F1E0FBBFEBBFE5BF8DE0A2E0BB27ED9346
:100090008A95E9F780E094E0A0E6ED930197E9F70F
:1000A000E2E7F0E085919591009761F0A591B59117
:1000B00005901590BF01F00105900D920197E1F7B1
:1000C000FB01F0CFEFE5EDBFE4E0EEBFC0E6D1E02D
:1000D0000C947900AA93E881E064E7B98BE18A95F2
:1000E000F1F7369A349BFECF349AE4B1F5B10C9413
:1000F000E802E0E0EABBEBBBE0E4E7B9E3E8E6B93D
:10010000E0E0E0BFA0E10E94BC020E948A020E94DF
:100110008A02A0E0DFDF662777270E94AD03DF01B8
:10012000CB01E3E3F3E363E070E40E94DB030E94AE
:1001300076032F01E0E6F1E0FA93EA93E6E6F0E0D9
:10014000FA93EA93F2010E9430040E943D0484E095
:100150000E9429022896A0E6B1E00E94AB02A4E624
:10016000B0E00E943D03D3CFFFCFBA93AA931A9376
:100170000A93AA81BB8112960E943504309759F1E7
:10018000AA81BB8114960E9435048F01309761F0DB
:100190000230E0E01E0798F0F80131978F01AA8144
:1001A000BB811496ED93FC93AA81BB811296ED91CD
:1001B000FD913196FE93EE933197AC81A083AA8195
:1001C000BB810E943504FF232AF0ED91FD91319609
:1001D000FE93EE9306C0AA81BB81EFEFFFEFED9394
:1001E000FC931981088125960895BA93AA932697BE
:1001F0000E94420410E0AC85BD85E0E0F0E0ED93A4
:10020000FC93EA89FB893196EA8BFB8B3197E49169
:100210002E2FE03009F415C1E12FE03039F42532FA
:1002200011F411E002C00E9403030AC1E130A9F4F5
:10023000253219F40E94030302C112E040E000E0FD
:100240002D3211F401E0FCC02B3211F44BE2F8C066
:10025000203211F440E2F4C002C0E23039F450E040
:1002600013E0203311F40068EBC003C0E33009F061
:10027000E7C0203310F02A3308F007C0AAE05A9FE5
:10028000502DE22FE0535E0FDBC0E22FE33649F43E
:100290000E940A03E889F989A481AA930E941003A5
:1002A000CEC0E33741F40E940A030E9416030E9465
:1002B000EA021E2F0AC0E03761F40E940A030E947E
:1002C00016030E94F6021E2F086002600F7730E0CE
:1002D00034C0E43611F0E93611F4046002C0E537A9
:1002E00031F4E4E5F0E0EE83FF8315E00CC0E8357F
:1002F00011F4086003C0E83709F0A1C0EEE5F0E0B2
:10030000EE83FF8314E002FF14C00E940A030E94E0
:100310002003AB85AA233AF4EA85FB850E942404D6
:10032000EA87FB874DE2403011F01F5F01C00B7F71
:1003300004C00E940A030E94200300FD11C015178B
:1003400078F407FF08C002FF04C00B7F242F115070
:1003500001C020E301C020E20E9403035150EFCF0F
:10036000312F01FF17C03030A1F003FF06C0EE812E
:10037000FF812591EE83FF8305C0AE81BF812D9162
:10038000AE83BF830E940303503009F051503150B7
:10039000EACF4BC020E3EE81FF810E943904E88759
:1003A000F987EE81FF813296EE83FF83E885F98538
:1003B000AA85BB85AE17BF0750F02F5FA885B9850A
:1003C000EA85FB85EA1BFB0BEA87FB87EFCF2A3325
:1003D00028F003FF02C0295F01C0295D04FD1AC097
:1003E000213320F4A885B985119709F409C0531762
:1003F00010F000FF01C013C020E207FF0BC020E394
:10040000006102FF07C00B7F4A930E941003503027
:1004100009F051500E940303503009F051503150FF
:10042000A885B985129708F0B5CF00FF08C05030F5
:1004300031F05150E0E2EA930E941003F8CF10E04F
:10044000E0CEAC85BD850E9435040E9449046496C7
:100450000895FF92F82E26970E9444040E942803D4
:10046000309719F4EFEFFFEF23C0DE0116960E94DC
:1004700020048D010E942803EE83FF83E0E0E887DB
:10048000E987DE011A960E9420040E943504FA933F
:10049000EA931A930A93E5EBF0E0FA93EA93DE010C
:1004A0001A96A3DE9F01AE81BF81E0E0EC93F901D3
:1004B0000E944B042A96FF900895AA93E2B3EF702E
:1004C000AE2FE881E07FEA2BE2BB8DE08A95F1F761
:1004D000929A8DE08A95F1F792988DE08A95F1F7DE
:1004E00077C0AA93A881E9DFE881E295E883A88133
:1004F000E4DF85E88A95F1F76BC0AA93E881F0E024
:10050000E459FE4FE081A981AE0FEBDF798068806E
:1005100022960895A2E00E942F03ACE0E2DFA1E062
:100520000E942F03E0E06E2E7E2E0895AA93A881EC
:10053000AA3011F0791448F0E0E0EA936394A62D14
:10054000DCDFA881AA3009F443C07394909AA88193
:10055000C8DF90983DC0BA93AA931A93A981BA8133
:10056000ED91A983BA831E2FE03019F0A12FDEDFB1
:10057000F5CF188123960895AA93E1B3E06FE1BB0C
:100580008A9A889A899A9298909891989880E88106
:10059000E058E0936E01E881E054E0936F01A4E13C
:1005A000B0E00E943D030E9435030E9435030E9483
:1005B0003503A0E282DF88EC90E00197F1F7A8E232
:1005C00090DFA4E08EDFA5E88CDFA6E08ADFA2DF63
:1005D00021960895BA93AA93A991B991EE27FF277E
:1005E0006D91662311F03196FBCF0895BA93AA93CB
:1005F000AA27BB27E991F9910590002011F01196E7
:10060000FBCFFD0108952A93AD85BE85EF85F8895E
:1006100009950895E889F9893497E88BF98B08954D
:10062000AD85BE85EF85F88909950895A889B989B2
:1006300014960E943504EE83FF83AE81BF81089536
:10064000A889B98914960E943504EA87FB87089522
:10065000DE011C960E9420040E94350408950E9429
:100660007102A3E0B0E00C943D03A0E30E945D02A0
:1006700088EC90E00197F1F70895109639F080ED3D
:1006800097E00197F1F7A8951197C9F708955523B9
:1006900042F4503811F4E0FF04C03196691F791F0D
:1006A0006BF050E8572711F45F9373C05F3F31F050
:1006B000660F000C57956795752F08955F9300207E
:1006C0000AF073C06CC050E8192E1522880F991FCC
:1006D0009527550F879550E8072E0522660F771F3F
:1006E0007527550F67950895689401C0E8945F9346
:1006F000F2DF703818F07F3F08F44BC056E1571B0B
:10070000AAF4519558300EF4593030F0EFEFFFEF66
:100710006FEF7FE777F91AC077275523B9F0EE0F0F
:10072000FF1F661F771F5A95D1F710C077275830E3
:1007300028F0EF2FF62F672F5850F9CF552331F0BF
:1007400076956795F795E7955A95D1F700200AF4C5
:100750007FD05F910895689401C0E894309760401D
:100760007040B1F0002426F0772312F4009470D08A
:10077000172E7EE1112032F07A95EE0FFF1F661FD3
:10078000111CF9CFEF2FF62F612D5F938ADF5F9158
:100790000895EE27FF27662777275F910895EFEFEB
:1007A000FFEF6FE77FEF5F910895EFEFFFEF6FE7E8
:1007B0007FE75F9108955F9386DF703821F4112001
:1007C0000AF4EDCFF2CF903809F4E3CF0124089476
:1007D000970B1BF4D4F30020F3CF792F1F932F93A3
:1007E0003F934F931124112722273327442755275E
:1007F00090E2AE17BF078607410730F0AE1BBF0B74
:10080000860B410B089401C08894551F221F331F8B
:10081000111CAA1FBB1F881F441F9A9551F7F9018D
:10082000612D4F913F912F911F91662332F0550F0B
:10083000EE1FFF1F661F7A9543F229DF5F9108952F
:100840000024AF0DB01D0895F195E195F040089595
:10085000F09560957095E195FF4F6F4F7F4F08952C
:100860006F2F660F660B762F0895ED91FC9111970F
:1008700008950590F491E02D08957A936A93FA9380
:10088000EA9308955A934A933A932A931A930A93B0
:1008900008955D814C813B812A81198108810895E9
:00000001FF
