:020000000C945E
:100002003D000C9400000C9400000C9400000C9431
:1000120000000C9400000C9400000C9400000C945E
:100022006A000C9400000C9400000C9400000C94E4
:1000320000000C9400000C9400000C9400000C943E
:1000420000000C9400000C9400000C9400000C942E
:100052000000000000004000790024003000190078
:10006200120002007800000018000400040054008E
:100072001300600158000000F894EE27ECBBF1E099
:10008200FBBFEBBFE5BF8DE0A2E0BB27ED938A95F6
:10009200E9F780E094E0A0E6ED930197E9F7ECE65A
:1000A200F0E085919591009761F0A591B591059049
:1000B2001590BF01F00105900D920197E1F7FB0148
:1000C200F0CFEFE5EDBFE4E0EEBFC0E6D1E00C9487
:1000D2009600AA93BA93EA93FA93EFB7EA93F301DD
:1000E20031963F01EEE1F0E0E615F70599F4F201F1
:1000F200A0E6B1E0EE0FFF1FAE0FBF1FEC91EBBB0E
:10010200F20131962F01E9E0F0E0E415F50514F46F
:1001120044245524EFEFEDBDE0EFECBDE991EFBFD4
:10012200F991E991B991A9911895EFEFEABBEBBB6F
:10013200E0E0EFBDE1E0EEBDEFEFEDBDE0EFECBDE5
:10014200E0E0E5BFE4BFE4E0E9BF7894FFCFFFCF92
:00000001FF
