:060000000C9467000C9453
:1000060000000C9400000C9400000C9400000C946A
:1000160000000C9400000C9400000C9400000C945A
:1000260000000C9400000C9400000C9400000C944A
:1000360000000C9400000C9400000C9400000C943A
:1000460000000C9400000C9400000C94000054680E
:100056006520526F626F7420697320676F696E67DF
:1000660020666F72776172640054686520526F6211
:100076006F7420697320676F696E6720726967689D
:10008600742020200054686520526F626F742069C6
:10009600732073746F7070656420202020202020E8
:1000A600200054686520526F626F74206973206760
:1000B6006F696E67206C656674202020000080C022
:1000C60002006001C4000000F894EE27ECBBF1E0EA
:1000D600FBBFEBBFE5BF8DE0A2E0BB27ED938A95A2
:1000E600E9F780E094E0A0E6ED930197E9F7E6EC06
:1000F600F0E085919591009761F0A591B5910590F5
:100106001590BF01F00105900D920197E1F7FB01F3
:10011600F0CFEFE5EDBFE4E0EEBFC0E6D1E00C9432
:100126009400EFEFE7BBE0E0E8BBEABBEBBBAAE17C
:10013600DBD0E0E0E3BFE2BFEFBDEEBDEDBDECBD61
:10014600E7BDE6BDEBBDEABDE9BDE8BDE2BDE5BD87
:10015600E4BDE3BDE5BFE9BFE0E8E8B9E0E0E0BF44
:10016600E9B3F0E0DF0102D0FBCFFFCFBA93AA9349
:10017600E881F981EF71F070E430A0E0FA0721F030
:10018600EE30A0E0FA0709F404C0E13FA0E0FA0768
:1001960009F404C0EB3FA0E0FA0729F4EAE0CED068
:1001A600A4E5B0E040C0EC31A0E0FA0721F0E83069
:1001B600A0E0FA0709F404C0E831A0E0FA0709F460
:1001C60004C0E031A0E0FA0709F404C0EC30A0E076
:1001D600FA0709F404C0E33EA0E0FA0709F404C0F4
:1001E600E73EA0E0FA0709F404C0EF3EA0E0FA07F4
:1001F60009F404C0E73FA0E0FA0709F404C0E33FAE
:10020600A0E0FA0729F4E6E099D0AFE6B0E00BC02B
:10021600309729F4E0E092D0ABE8B0E004C0E9E022
:100226008DD0A8EAB0E04DD02BC0AA93E5B3EF700D
:10023600AE2FE881E07FEA2BE5BB82E08A95F1F7F5
:10024600AA9A82E08A95F1F7AA9882E08A95F1F750
:1002560073C0AA93A881E9DFE881E295E883A881C3
:10026600E4DF81E18A95F1F767C0AA93E881F0E0BF
:10027600E05AFE4FE081A981AE0FEBDF598048803E
:1002860022960895A2E05FD0ACE0E3DFA1E05BD068
:10029600E0E04E2E5E2E0895AA93A881AA3011F0B2
:1002A600571448F0E0E0EA934394A42DDEDFA881DA
:1002B600AA3009F441C05394A89AA881CADFA89825
:1002C6003BC0BA93AA931A93E981FA813196E983DE
:1002D600FA833197E4911E2FE03019F0A12FDCDF6D
:1002E600F3CF188123960895AA93E4B3E06FE4BB95
:1002F600A29AA09AA19AAA98A898A9987880E88123
:10030600E058E0936201E881E054E0936301A4E1E0
:10031600B0E00E94B1011CD01BD01AD0A0E285DF4C
:1003260081E28A95F1F7A8E294DFA4E092DFA5E8DE
:1003360090DFA6E08EDFA6DF21960895E8BBE0E019
:10034600EA93A0E092CF85DFA3E0B0E00C94B10180
:10035600A0E36BDF81E28A95F1F70895109639F0F4
:10036600A8958AEF90E00197F1F71197C9F70895DC
:00000001FF
