:0A0000002DC0FECFFDCFFCCFFBCFDB
:10000A00FACFF9CFF8CFF7CFF6CFF5CFF4CFF3CFBA
:10001A00F2CFF1CFF0CFEFCFEECFEDCF0302060450
:10002A000C080901000020416E676C65203A200027
:10003A0001002D4E414E00494E46000080C001008D
:10004A0005002E00010060013A000200640146002A
:10005A000000F894EE27ECBBF1E0FBBFEBBFE5BF75
:10006A008DE0A2E0BB27ED938A95E9F780E094E062
:10007A00A0E6ED930197E9F7E8E4F0E08591959120
:10008A00009761F0A591B59105901590BF01F00117
:10009A0005900D920197E1F7FB01F0CFEFE5EDBF77
:1000AA00E4E0EEBFC0E6D1E000C02497E0E0E5BBA3
:1000BA00EFE0E4BBE0ECE2BBE0E0E1BBA0E1DAD0D8
:1000CA0094D0A0E3B0E0C3D0A52DEDE2EA9F1A9246
:1000DA000A92DE01129634D0E7E0EA93A1E078D0E2
:1000EA00DE01A6D0869B02C0879901C001C0FACF63
:1000FA0086990CC05394E52DF0E0A7E0B0E0FED05D
:10010A005E2EA2E3E0D0869BFECFDACF879916C097
:10011A00A2E3D9D0879BFECF00E010E0E52DD801FD
:10012A00F0E0AE17BF0754F4F801EA5DFF4F049000
:10013A0005BAA4E6C8D00F5F1F4FF0CFC1CFFFCFDB
:10014A00BA93AA93A991B991E991F99130962AF4AF
:10015A00E095F09531966DE26D93E89480E197E22F
:10016A000DD088EE93E00AD084E6992707D08AE07A
:10017A0005D06E2F10D066276C9308956627E8176E
:10018A00F90720F06395E81BF90BC9F7662311F408
:10019A0016F008956894605D6D930895AA93E8B384
:1001AA00EF70AE2FE881E07FEA2BE8BB8ED0C29ACF
:1001BA008CD0C2988AD085C0AA93A881EFDFE88143
:1001CA00E295E883A881EADF85E88A95F1F779C0A4
:1001DA00AA93E881F0E0EC59FE4FE081A981AE0FC5
:1001EA00EBDF4980788022960895A2E0E5DFA3E05C
:1001FA006AD0ACE0E1DFA1E0DFDFA3E064D0E0E0B9
:10020A007E2E4E2E0895AA93A881AA3011F0461484
:10021A0048F0E0E0EA937394A72DDADFA881AA30C8
:10022A0009F44FC04394C09AA881C6DFC09849C058
:10023A00BA93AA931A93A981BA81ED91A983BA8331
:10024A001E2FE03019F0A12FDEDFF5CF10C0BA93D0
:10025A00AA931A93E981FA813196E983FA8331974D
:10026A00E4911E2FE03019F0A12FCDDFF3CF1881D2
:10027A0023960895AA93E7B3E06FE7BBBA9AB89AB0
:10028A00B99AC298C098C1986880E881E058E0930A
:10029A006601E881E054E0936701A4E114D019D023
:1002AA0018D017D0A0E27ADF88EC90E00197F1F736
:1002BA00A8E282DFA4E080DFA5E87EDFA6E07CDF9B
:1002CA0094DF21960895B0E00BC08DE08A95F1F78E
:1002DA000895A0E363DF88EC90E00197F1F70895B1
:1002EA00109639F080ED97E00197F1F7A8951197EC
:1002FA00C9F70895F195E195F0400895E894F7FF5C
:10030A0002C0F8DF6894EA23FB230EF4F3DF0895B2
:00000001FF
