:0A0000000C9446000C9400000C94D0
:10000A0000000C9400000C9473000C9400000C94F3
:10001A0000000C9400000C9400000C9400000C9456
:10002A0000000C9400000C9400000C9400000C9446
:10003A0000000C9400000C9400000C9400000C9436
:10004A0000000C9400000C9400001027E8036400E0
:10005A000A00010000100001100001000000000069
:10006A000000253032643A253032643A2530326451
:10007A00000080C0060004006600020060017C00E7
:10008A000000F894EE27ECBBF1E0FBBFEBBFE5BF45
:10009A008DE0A2E0BB27ED938A95E9F780E094E032
:1000AA00A0E6ED930197E9F7EEE7F0E085919591E7
:1000BA00009761F0A591B59105901590BF01F001E7
:1000CA0005900D920197E1F7FB01F0CFEFE5EDBF47
:1000DA00E4E0EEBFC0E6D1E00C94C8000A921A929E
:1000EA00FA926A937A938A939A93AA93BA93EA931F
:1000FA00FA93EFB7EA932A97F20131962F01ECE3CC
:10010A00F0E0E415F505B1F444245524F3013196E1
:10011A003F01ECE3F0E0E615F70561F46624772485
:10012A00F40131964F01E8E1F0E0E815F90511F420
:10013A0088249924FE01FA93EA93ECE6F0E0FA9314
:10014A00EA93F4010E942403F3010E942403F201BA
:10015A000E9424038CE00E94D7026096E0E0EA93B2
:10016A00A0E03FD0DE016BD02A96E991EFBFF9916A
:10017A00E991B991A9919991899179916991F990A6
:10018A00199009901895A0E16BD0E0E4E9BFE8BFA7
:10019A00E8E0E2BDE0E0E4BDE5E0E5BD7894FFCF4C
:1001AA00FFCFAA93E2B3EF70AE2FE881E07FEA2B8C
:1001BA00E2BB8DE08A95F1F7929A8DE08A95F1F784
:1001CA0092988DE08A95F1F777C0AA93A881E9DF22
:1001DA00E881E295E883A881E4DF85E88A95F1F76A
:1001EA006BC0AA93E881F0E0E05AFE4FE081A98152
:1001FA00AE0FEBDFB980A88022960895A2E00E9494
:10020A002903ACE0E2DFA1E00E942903E0E0AE2E80
:10021A00BE2E0895AA93A881AA3011F0BD1448F001
:10022A00E0E0EA93A394AA2DDCDFA881AA3009F4BE
:10023A0043C0B394909AA881C8DF90983DC0BA93FE
:10024A00AA931A93A981BA81ED91A983BA831E2F21
:10025A00E03019F0A12FDEDFF5CF1881239608953B
:10026A00AA93E1B3E06FE1BB8A9A889A899A929835
:10027A0090989198D880E881E058E0936201E881EB
:10028A00E054E0936301A4E1B0E00E9463030E949A
:10029A002F030E942F030E942F03A0E282DF88EC23
:1002AA0090E00197F1F7A8E290DFA4E08EDFA5E8DD
:1002BA008CDFA6E08ADFA2DF21960895BA93AA937B
:1002CA001A930A93AA81BB8112960E947A033097E5
:1002DA0059F1AA81BB8114960E947A038F01309743
:1002EA0061F00230E0E01E0798F0F80131978F01C3
:1002FA00AA81BB811496ED93FC93AA81BB811296C5
:10030A00ED91FD913196FE93EE933197AC81A083E6
:10031A00AA81BB810E947A03FF232AF0ED91FD9105
:10032A003196FE93EE9306C0AA81BB81EFEFFFEFF1
:10033A00ED93FC931981088125960895BA93AA939F
:10034A0026970E94870310E0AC85BD85E0E0F0E0C7
:10035A00ED93FC93EA89FB893196EA8BFB8B319703
:10036A00E4912E2FE03009F415C1E12FE03039F481
:10037A00253211F411E002C00E9437030AC1E130AC
:10038A00A9F4253219F40E94370302C112E040E0B1
:10039A0000E02D3211F401E0FCC02B3211F44BE2E3
:1003AA00F8C0203211F440E2F4C002C0E23039F45D
:1003BA0050E013E0203311F40068EBC003C0E330CF
:1003CA0009F0E7C0203310F02A3308F007C0AAE08A
:1003DA005A9F502DE22FE0535E0FDBC0E22FE33627
:1003EA0049F40E943E03E889F989A481AA930E94EC
:1003FA004403CEC0E33741F40E943E030E944A03FD
:10040A000E940B031E2F0AC0E03761F40E943E03CC
:10041A000E944A030E9417031E2F086002600F778A
:10042A0030E034C0E43611F0E93611F4046002C059
:10043A00E53731F4E4E5F0E0EE83FF8315E00CC024
:10044A00E83511F4086003C0E83709F0A1C0EEE509
:10045A00F0E0EE83FF8314E002FF14C00E943E0323
:10046A000E945403AB85AA233AF4EA85FB850E94CD
:10047A007103EA87FB874DE2403011F01F5F01C02C
:10048A000B7F04C00E943E030E94540300FD11C06A
:10049A00151778F407FF08C002FF04C00B7F242F4A
:1004AA00115001C020E301C020E20E9437035150DD
:1004BA00EFCF312F01FF17C03030A1F003FF06C084
:1004CA00EE81FF812591EE83FF8305C0AE81BF8156
:1004DA002D91AE83BF830E943703503009F05150EB
:1004EA003150EACF4BC020E3EE81FF810E947E03A8
:1004FA00E887F987EE81FF813296EE83FF83E885EC
:10050A00F985AA85BB85AE17BF0750F02F5FA8856E
:10051A00B985EA85FB85EA1BFB0BEA87FB87EFCFE8
:10052A002A3328F003FF02C0295F01C0295D04FDB8
:10053A001AC0213320F4A885B985119709F409C096
:10054A00531710F000FF01C013C020E207FF0BC0D1
:10055A0020E3006102FF07C00B7F4A930E94440315
:10056A00503009F051500E943703503009F0515071
:10057A003150A885B985129708F0B5CF00FF08C099
:10058A00503031F05150E0E2EA930E944403F8CF30
:10059A0010E0E0CEAC85BD850E947A030E948E03EE
:1005AA0064960895FF92F82E26970E9489030E9466
:1005BA005C03309719F4EFEFFFEF23C0DE011696C4
:1005CA000E946D038D010E945C03EE83FF83E0E0CD
:1005DA00E887E987DE011A960E946D030E947A0372
:1005EA00FA93EA931A930A93E3E6F1E0FA93EA9309
:1005FA00DE011A96A3DE9F01AE81BF81E0E0EC9393
:10060A00F9010E9490032A96FF900895BA93AA933B
:10061A00A991B991EE27FF276D91662311F03196C2
:10062A00FBCF0895BA93AA93AA27BB27E991F99118
:10063A000590002011F01196FBCFFD0108950E944C
:10064A0075030E94820308950E94EA00A3E0B0E0C5
:10065A000C946303A0E30E94D60088EC90E0019713
:10066A00F1F708952A93AD85BE85EF85F889099536
:10067A000895E889F9893497E88BF98B0895AD854F
:10068A00BE85EF85F88909950895A889B9891496D0
:10069A000E947A03EE83FF83AE81BF810895A88901
:1006AA00B98914960E947A03EA87FB870895DE01C6
:1006BA001C960E946D030E947A030895109639F0E1
:1006CA00A89580ED97E00197F1F71197C9F708957A
:1006DA000024AF0DB01D0895F195E195F0400895FD
:1006EA006F2F660F660B762F0895ED91FC91119787
:1006FA0008950590F491E02D08957A936A93FA93F8
:10070A00EA9308955A934A933A932A931A930A9327
:10071A0008955D814C813B812A8119810881089560
:00000001FF
