:100000000C943B000C9400000C9400000C94000035
:100010000C9400000C9400000C9400000C94000060
:100020000C9400000C9468000C9400000C940000E8
:100030000C9400000C9400000C9400000C94000040
:100040000C9400000C9400000C9400000C94000030
:100050000C94000000000000FE00FD00FB00F70013
:10006000EF00DF00BF007F000400060054000F0017
:10007000600158000000F894EE27ECBBF1E0FBBFF4
:10008000EBBFE5BF8DE0A2E0BB27ED938A95E9F7D2
:1000900080E094E0A0E6ED930197E9F7E8E6F0E070
:1000A00085919591009761F0A591B5910590159076
:1000B000BF01F00105900D920197E1F7FB01F0CF30
:1000C000EFE5EDBFE4E0EEBFC0E6D1E00C949C00AC
:1000D000AA93BA93EA93FA93EFB7EA93E1E0F0E0D8
:1000E000E615F705F1F4F20131962F01E2E0F0E0B8
:1000F000E415F505A9F4F401A0E6B1E0EE0FFF1F49
:10010000AE0FBF1FEC91E8BBF40131964F01E7E061
:10011000F0E0E815F90514F48824992444245524C2
:1001200002C0EFEFE8BBE0E0E2BFE991EFBFF99179
:10013000E991B991A9911895EFEFE7BBE0E0EABB2F
:10014000E5E0E9BFE3BFE0E0E2BFECBFEFEFE8BB13
:100150007894C89B0BC0E1E0F0E0E615F70519F4D0
:100160006624772403C0E1E0F0E03F01F2CFFFCF47
:00000001FF
