:0E0000000C942F000C9400000C9400000C9443
:10000E0000000C9400000C9400000C9400000C9462
:10001E0000000C9400000C9400000C9400000C9452
:10002E0000000C9400000C9400000C9400000C9442
:10003E0000000C9400000C9400000C9400000C9432
:10004E0000000C9400003F065B4F666D7D077F6FCE
:10005E00F894EE27ECBBF1E0FBBFEBBFE5BF8DE004
:10006E00A2E0BB27ED938A95E9F780E094E0A0E645
:10007E00ED930197E9F7EFE5EDBFE4E0EEBFC0E6E3
:10008E00D1E00C944A00EFE7E7BBE0E0E8BBE0EF1D
:10009E00E1BB0DD01E2F1F3F31F0F0E0EC5AFF4FA9
:1000AE00049008BA02C0E0E0E8BBF3CFFFCF1A938A
:1000BE000A931FEF949841D079F044D011F411E0D7
:1000CE000BC0E530A0E0FA0711F412E005C0E330F2
:1000DE00A0E0FA0709F413E0949A95982ED079F0DF
:1000EE0031D011F414E00BC0E530A0E0FA0711F4A2
:1000FE0015E005C0E330A0E0FA0709F416E0959A82
:10010E0096981BD079F01ED011F417E00BC0E53095
:10011E00A0E0FA0711F418E005C0E330A0E0FA07FA
:10012E0009F419E0969A9798819B10E0979AEFEF51
:10013E00E2BBE12F099119910895E0B3E7700E2FFC
:10014E0007300895E02FF0E0E630A0E0FA070895BA
:00000001FF
