:0A0000000C943E000C9400000C94D8
:10000A0000000C9400000C9400000C9400000C9466
:10001A0000000C9400000C94AD000C946B000C943E
:10002A0000000C9400000C9400000C9400000C9446
:10003A0000000C9400000C9400000C9400000C9436
:10004A0000000C9400000C94000003000000000063
:10005A003F0006005B004F0066006D007D00070050
:10006A007F006F00060004005400130060015A006C
:10007A000000F894EE27ECBBF1E0FBBFEBBFE5BF55
:10008A008DE0A2E0BB27ED938A95E9F780E094E042
:10009A00A0E6ED930197E9F7EEE6F0E085919591F8
:1000AA00009761F0A591B59105901590BF01F001F7
:1000BA0005900D920197E1F7FB01F0CFEFE5EDBF57
:1000CA00E4E0EEBFC0E6D1E00C941A010A92AA93CA
:1000DA00BA93EA93FA93EFB7EA93F30131963F01A1
:1000EA00E1E0F0E0E615F70549F5F201A4E7B1E031
:1000FA00EE0FFF1FAE0FBF1F0E943901A0E6B1E04D
:10010A00EE0FFF1FAE0FBF1FEC91E2BBF20131975A
:10011A002F010024401450041CF4E3E0F0E02F0106
:10012A00B594A7940A2C0B2819F4E8E0F0E05F01D3
:10013A00EFEFAE26A5BA66247724AE26E0E0E2BF4A
:10014A00E991EFBFF991E991B991A99109901895AF
:10015A00AA93BA93EA93FA93EFB7EA93F401319622
:10016A004F01E0E9F1E0E815F90509F053C0E09123
:10017A007A01F0917B013196E0937A01F0937B0149
:10018A00E0917A01F0917B01EA30A0E0FA0709F0E8
:10019A003FC0EAE7F1E063D0E0917801F09179019C
:1001AA003196E0937801F0937901E0917801F0912A
:1001BA007901EA30A0E0FA0759F5E8E7F1E04FD013
:1001CA00E0917601F09177013196E0937601F09310
:1001DA007701E0917601F0917701EA30A0E0FA0721
:1001EA00B9F4E6E7F1E03BD0E0917401F0917501D2
:1001FA003196E0937401F0937501A0917401B09166
:10020A0075011A9729F4E0E0E0937401E09375010F
:10021A0088249924EFEFEDBDE0EFECBDE991EFBF43
:10022A00F991E991B991A9911895EFEFE1BBE4BB76
:10023A00E0E0E2BBEFEFE5BBE5E0E9BFE3BFE0E00A
:10024A00E2BFECBFEFBDE5E0EEBDEFEFEDBDE0EFE5
:10025A00ECBDE0E0E5BFE4BF7894FFCFFFCFA0E0BC
:10026A00B0E0A083B1830895ED91FC9111970895B0
:00000001FF
